S00F00004F6E65576972652E737265635C
S113000099C00000B6C00000B4C00000B2C0000037
S1130010B0C00000AEC00000ACC00000AAC0000028
S1130020A8C00000A6C00000A4C00000A2C0000038
S1130030A0C000009EC000009CC000009AC0000048
S113004098C0000096C0000094C0000092C0000058
S113005090C000008EC000008CC000008AC0000068
S113006088C0000086C0000084C0000082C0000078
S113007080C000007EC000007CC000007AC0000088
S113008078C0000076C0000074C0000072C0000098
S113009070C000006EC000006CC000006AC00000A8
S11300A068C0000066C0000064C0000062C00000B8
S11300B060C000005EC000005CC000005AC00000C8
S11300C058C0000056C0000054C0000052C00000D8
S11300D050C000004EC000004CC000004AC00000E8
S11300E048C0000046C0000044C0000042C00000F8
S11300F040C000003EC000003CC000003AC0000008
S113010038C0000036C0000034C0000032C0000017
S113011030C000002EC000002CC000002AC0000027
S113012028C0000026C0000024C0000022C0000037
S113013020C0000011241FBECFEFD1E8DEBFCDBF29
S113014000E00CBF12E0A0E0B2E0E0E5F4E000E083
S11301500BBF02C007900D92A037B107D9F722E078
S1130160A0E7B2E001C01D92A037B207E1F787D043
S11301706DC146CF75986D9A85E88A95F1F70000B0
S1130180F8946D98E5E1EA95F1F700008CB1789464
S1130190EBE3F3E03197F1F700C00000659B02C088
S11301A08072089581E00895F8946D9A92E09A958A
S11301B0F1F700C081116D9892E09A95F1F700C0B3
S11301C0659B80E09DE19A95F1F700006D98789425
S11301D00895CF93DF93C82FD8E08C2F8170E4DF8C
S11301E0C6958111C068D150C1F78C2F90E0DF9182
S11301F0CF9108958FEFEDCF08950F931F93CF9371
S1130200DF938C01B7DF83E3E4DFE801085F1F4F6E
S1130210F1DF8993C017D107D9F7DF91CF911F91EF
S11302200F91089583E38093CC001092CD00109237
S1130230C8008EE08093CA0088E18093C9000895C5
S1130240E8ECF0E0908195FFFDCF8093CE00089517
S1130250CF93DF93EC018881882329F02196F0DF86
S113026089918111FCCFDF91CF910895F1DF8DE069
S1130270E7CF08952C9A249A6C98749A0895CF9392
S1130280DF93CDB7DEB728970FB6F894DEBF0FBE65
S1130290CDBFF0DFC7DF789480E092E0E7DFCE01E6
S11302A0019628E0FC0111922A95E9F7A6DFFFEFF9
S11302B021EE84E0F15020408040E1F700C00000CE
S11302C09FEFE1EEF4E09150E040F040E1F700C030
S11302D000002FEF81EE94E0215080409040E1F740
S11302E000C00000EFEFF1EE24E0E150F0402040C8
S11302F0E1F700C000008FEF91EEE4E08150904000
S1130300E040E1F700C00000FFEF21EE84E0F1508F
S113031020408040E1F700C000009FEFE1EEF4E0F0
S11303209150E040F040E1F700C000002FEF81EE73
S113033094E0215080409040E1F700C00000EFEFCE
S1130340F1EE24E0E150F0402040E1F700C000006D
S11303508FEF91EEE4E081509040E040E1F700C07F
S1130360000008DF803229F42C9A81E192E07EDFDC
S113037012C0811105C02C9887E292E077DF0BC090
S1130380813029F42C9A8AE392E070DF04C02C9A1D
S11303908FE592E06BDFFFEF21EE84E0F150204027
S11303A08040E1F700C000009FEFE1EEF4E09150DF
S11303B0E040F040E1F700C000002FEF81EE94E050
S11303C0215080409040E1F700C00000EFEFF1EED3
S11303D024E0E150F0402040E1F700C000008FEF3E
S11303E091EEE4E081509040E040E1F700C000006D
S11303F0FFEF21EE84E0F15020408040E1F700C09F
S113040000009FEFE1EEF4E09150E040F040E1F7AE
S113041000C000002FEF81EE94E021508040904016
S1130420E1F700C00000EFEFF1EE24E0E150F0400E
S11304302040E1F700C000008FEF91EEE4E081502E
S11304409040E040E1F700C000008BCFF894FFCF6C
S1130450312D576972652D5265616465723A0D0AD2
S1130460004E6F2064657669636520646574656316
S1130470746564210D0A00446576696365206465CA
S1130480746563746564210D0A0057697265206997
S1130490732073686F727465642E20436865636BA0
S11304A020636F6E6E656374696F6E210D0A00556B
S11304B06E6B6E6F776E206572726F72210D0A001B
S9030000FC
